:1000000000308A00172800002730840000080319F8
:1000100016280630A100A001A00B0C28A10B0B286C
:100020007B30A000A00B1228800B0928003484012B
:100030001F308305813083169900A63098009030D8
:100040008312980083161F149F141F151F149F14EA
:100050001F1583121F10941283168712071687111B
:1000600001308312940083160108C73908388100D3
:10007000831290010030A10092000030831692009C
:100080008501FF3083128500831686018312860066
:1000900083168701831287000230A600FA30A7007A
:1000A0000420A60B4E288316850183128501831632
:1000B000860183128601831687018312870102302D
:1000C000A600FA30A7000420A60B6128831640285A
:0200D0006300CB
:02400E00C03FB1
:00000001FF
;PIC16C73
