:1000000000308A00172800002730840000080319F8
:1000100016280630A100A001A00B0C28A10B0B286C
:100020007B30A000A00B1228800B0928003484012B
:100030001F308305813083169900A63098009030D8
:100040008312980083161F149F141F15013083120A
:10005000A60083161F149F141F1583121F109412DD
:1000600083168712071687118312940083160108DE
:10007000C73908388100831290010030A100920036
:10008000003083169200660083122608803C031914
:100090005428831686018312260886000A30A7009A
:1000A00004200310A60D4528260B57286228831626
:1000B00086018312260886000A30A7000420031058
:0800C000A60C5428452863003A
:02400E00C03FB1
:00000001FF
;PIC16C73
