:1000000000308A00172800002630840000080319F9
:1000100016280630A100A001A00B0C28A10B0B286C
:100020007B30A000A00B1228800B0928003484012B
:100030001F308305813083169900A63098009030D8
:100040008312980083161F149F141F151F149F14EA
:100050001F1583121F10941283168712071687111B
:1000600001308312940083160108C73908388100D3
:10007000831290010030A10092000030831692009C
:1000800065008501FF30831285003230A600042010
:1000900083168501831285013230A6000420831661
:0400A0004128630090
:02400E00C03FB1
:00000001FF
;PIC16C73
