:1000000000308A007B2800008A1D0A128A190A160D
:100010008A11831A0F28A500030EA6001428831244
:10002000A500030EA600A6140A1E8A110A1A8A1534
:100030000A120A08AD008A018313A50E0408A7005E
:100040002008A8002108A9002208AA002308AB0064
:100050002408AC0083128C308400001C31280C185A
:100060004628270884002808A0002908A1002A089B
:10007000A2002B08A3002C08A4002D088A00260E3D
:1000800083008312250EA618831609008A114828BA
:100090008F010A308E00B00AAF09831685018312E2
:1000A0002F088500B0010C108A11312854088400F3
:1000B0000008D6005508840000085602031D6C286D
:1000C000540884008008031D68280030A1007A28A5
:1000D0005408D40AD50A5628540884000008D600CB
:1000E000550884000008560203187828FF30792844
:1000F0000130A100003484011F30830519308316BC
:100100009900A630980090308312980083161F142F
:100110009F141F158312AE01FF30AF00B001613094
:10012000BB006230BC006330BD00BE016230BF0066
:100130006330C0006430C100C201C3006530C40038
:100140006630C500C601C7006730C8006830C90006
:10015000CA01CB01CC01CD01CE01CF0183161F1402
:100160009F141F1583121F109412831687120716EF
:100170008711013083129400003083169400010827
:10018000C73908388100B530831290000030A100D3
:1001900092000030831692000C14C03083128B043E
:1001A000003083168500F030860083128F010A30FC
:1001B0008E004B08033C0319E62831304B078400BE
:1001C0008C1EE0281A088000CB0AD92831304B0752
:1001D000840080013B30D4003130D5005620210806
:1001E000D0003F30D4003130D50056202108D10056
:1001F0004330D4003130D50056202108D20047309A
:10020000D4003130D50056202108D300D008031D7A
:100210001429CC09CC08031D0F2906101029061437
:10022000831606103C298312D108031D2229CD090B
:10023000CD08031D1D2986101E29861483168610DD
:100240003C298312D208031D3029CE09CE08031D94
:100250002B2906112C290615831606113C29831219
:10026000D308031D3D29CF09CF08031D3929861165
:100270003A298615831686118312CB01D92863008B
:02400E00B93FB8
:00000001FF
;PIC16F73
