:1000000000308A000428000084011F308305193065
:1000100083169900A63098009030831298008316BA
:100020001F149F141F151F109F101F1183121F13E1
:100030009F131F149412831687120716871101301D
:10004000831294000030831694000108C7390838E1
:100050008100831290010030A100920000308316CD
:100060009200860010308312A1001F08C7392104B6
:100070009F002130A000A00B3B281F151F193E2810
:100080001E08A6002608323C031C4C288316860155
:10009000FE30831286005F282608643C031C562825
:1000A00083168601FD30831286005F282608FA3CFD
:1000B000031C5F2883168601FC30831286003928D2
:0200C0006300DB
:02400E00B93FB8
:00000001FF
;PIC16F73
