:1000000000308A005B2800008A1D0A128A190A162D
:100010008A11831A0F28A500030EA6001428831244
:10002000A500030EA600A6140A1E8A110A1A8A1534
:100030000A120A08AD008A018313A50E0408A7005E
:100040002008A8002108A9002208AA002308AB0064
:100050002408AC0083128C308400001F31280C1B54
:100060004628270884002808A0002908A1002A089B
:10007000A2002B08A3002C08A4002D088A00260E3D
:1000800083008312250EA618831609008A114828BA
:100090000830A1001F08C73921049F001F151F1930
:1000A0004F281E08AE008316860183122E08860094
:1000B0000C138A11312884011F30830519308316EF
:1000C0009900A630980090308312980083161F1470
:1000D0009F141F151F109F101F1183121F139F13B2
:1000E0001F1494128316871207168711013083128A
:1000F00094000030831694000108C7390838810045
:10010000831290010030A10092000030831692000B
:100110000C17C03083128B040030831686008F28A2
:0201200063007A
:02400E00B93FB8
:00000001FF
;PIC16F73
