:1000000000308A00882800008A1D0A128A190A1600
:100010008A11831A0F28A500030EA6001428831244
:10002000A500030EA600A6140A1E8A110A1A8A1534
:100030000A120A08AD008A018313A50E0408A7005E
:100040002008A8002108A9002208AA002308AB0064
:100050002408AC0083128B1E2F280B1950288C30DB
:100060008400001C35280C1852288C308400801C19
:100070003B288C185428270884002808A000290849
:10008000A1002A08A2002B08A3002C08A4002D0818
:100090008A00260E83008312250EA61883160900F7
:1000A0008A1156288A1166288A1179283108643CF9
:1000B000031D6128AE098316850183122E08850071
:1000C000B1018101B10A0B118A113B283208643C4D
:1000D000031D7128AF098316860183122F0886003D
:1000E000B201FC308F0017308E00B20A0C108A115A
:1000F0003B283308C83C031D8428B00983168701B8
:10010000831230088700B301B30A8C108A113B2890
:1001100084011F308305193083169900A63098009A
:1001200090308312980083161F149F141F1583129A
:10013000AE01AF01B00183161F149F141F15831267
:100140001F1094128316871207168711013083122D
:1001500094000030831694000108C03901388100F2
:100160009530831290000030A10006389200FF30D5
:100170008316920083128B1683160C148C14C030D5
:1001800083128B04003083168500860087000530BB
:1001900083128100FC308F0017308E00CE28630060
:02400E00B93FB8
:00000001FF
;PIC16F73
