:1000000000308A003C2900000A108A100A11820779
:1000100024340C34013406344030840000080319C1
:100020001F280130A100A001A00B1428A10B132848
:100030004A30A000A00B1A281D28800B112800347C
:10004000470EF039A0000F3006052004860000009E
:1000500006152A28061100340610F0308316860093
:10006000831286140000061500000608060E0F39DC
:10007000C70006110000061500000608060E0F391D
:10008000C60006110030831686008312470EA000BA
:10009000F030A00520084604A1002108C600C61BB8
:1000A0002D28441C06104418061400008610000079
:1000B0000611450EC6000F30C6054608C7002020B1
:1000C00045080F39C600C7002020003400308316D1
:1000D000860083120610861006110F30C0000C2017
:1000E0000130BD003D08033C031C7E280330C700DF
:1000F00020200530C0000C20BD0A72280230C70045
:100100002020BD013D08033C031C8F283D0804202E
:10011000BE00C4013E08C5002C20BD0A82288A11F9
:100120005E290830A10000008711831687110000A6
:100130008312BE0D0712031CA02883160716831214
:100140000318A528831607128312831687158312B6
:10015000871DA828A10B93280000871183168711FB
:10016000000007160000000087158312871DB628BF
:10017000A1010000071A2114871183168711831229
:10018000071283160712831200340830BF002008BC
:10019000C00083160716000087158312871DCE281E
:1001A000071A0314071E0310A10D00008316871100
:1001B00083128711BF0BC92883160716000083120C
:1001C000071240080319E72883160712831200005C
:1001D000831687158312871DEB280000871183166D
:1001E00087110000831207128316071283128A11E7
:1001F000D3293D088400800803193A293D08BD0A27
:1002000084000008BE003E08BF003F080C3A0319F6
:100210001029063A03191829023A03192E293329FD
:10022000C4010130C5002C200230C0000C20392947
:100230000130C0000230C100410B1F29222940308B
:10024000C2002329C20101304002C207420880389F
:10025000C300C4014308C5002C203929C401103053
:10026000C5002C2039290130C4003F08C5002C20CE
:100270003929F9288A11EF2984011F3083051930A3
:1002800083169900A6309800903083129800831648
:100290001F149F141F158312A501A6017130A90018
:1002A0007730AA006530AB007230AC007430AD001E
:1002B000AE01AF01B001B101B201662883161F146F
:1002C0009F141F1583121F1083160108C7390838A1
:1002D0008100831290010030A1009200003083164B
:1002E000920007160000871500008312071283167C
:1002F000071200008312871183168711A030831222
:10030000BE009120BE019120A6012608033C031CDB
:1003100092292930260784000008BD00BE009120E4
:10032000A60A852983160712000087158312871DE8
:10033000972900009B290000831607160000071666
:1003400000008715000083120712831607120000B1
:100350008312871183168711A0308312BE0091206B
:100360002108A800A8080319B72983169F29BE01F0
:100370009120831607160000871500008312871D41
:10038000BF290712831607120000831287118316F4
:100390008711A1308312BE009120333026078400DC
:1003A0000130A000C52821088000333026078400D2
:1003B0000008BD003D080C1EDB29990083160712BA
:1003C000000087158312871DE3290000E72900003C
:1003D00083160716000033308312BD00F928EF2979
:0203E0006300B8
:02400E00B93FB8
:00000001FF
;PIC16F73
