:1000000000308A004F2800008A1D0A128A190A1639
:100010008A11831A0F28A500030EA6001428831244
:10002000A500030EA600A6140A1E8A110A1A8A1534
:100030000A120A08AD008A018313A50E0408A7005E
:100040002008A8002108A9002208AA002308AB0064
:100050002408AC0083120B1E2F288B184428270875
:1000600084002808A0002908A1002A08A2002B0863
:10007000A3002C08A4002D088A00260E83008312FA
:10008000250EA618831609008A114628AE09831684
:10009000870183122E0887008B108A112F28840174
:1000A0001F308305193083169900A63098009030D0
:1000B0008312980083161F149F141F158312AE011C
:1000C00083161F149F141F1583121F10941283167A
:1000D00087120716871101308312940000308316AF
:1000E00094000108C739083881008312900100305C
:1000F000A100920000308316920083120B16C030CC
:100100008B040030831687000F308600862863003A
:02400E00B93FB8
:00000001FF
;PIC16F73
