:1000000008308A00002800000A108A100A118207AE
:1000100028340C34013406340A108A100A1182077D
:100020000C3400340A108A100A11820779346F34B4
:10003000203479346F342034633461346C34633465
:1000400075346C34613474346F3472340034AB30D2
:100050008400000803193A280130A100A001A00B78
:100060002F28A10B2E284A30A000A00B35283828B5
:10007000800B2C2800348316320EF0398312A00036
:100080000F300705200487000000071547280711D7
:1000900000340710F03083168700831287140000A5
:1000A000071500000708070E0F398316B2008312E8
:1000B00007110000071500000708070E0F39831607
:1000C000B10083120711003083168700320E8312AD
:1000D000A000F030A0052008831631048312A1008F
:1000E00021088316B100B11F772883124A282F18E0
:1000F0007C288312071083162F1C81288312071473
:100100008316000083128710000007118316300E3B
:10011000B1000F30B1053108B20083123B208316C5
:1001200030080F39B100B20083123B200034003098
:100130008316870083120710871007110F3083166C
:10014000AB00831227200130FF007F08033C031C13
:10015000B52803308316B20083123B200530831686
:10016000AB0083122720FF0AA52802308316B200B5
:1001700083123B20FF017F08033C031CCA287F0831
:1001800004208316A000AF012008B000831249208C
:10019000FF0ABB28003483162A080C3A831203197D
:1001A000D828063A0319E428023A0319FC2803293F
:1001B0008316AF010130B00083124920023083164C
:1001C000AB00831227200B2901308316AB000230CD
:1001D000AC002C0BEC28EF284030AD00F028AD012E
:1001E00001302B02AD072D088038AE00AF012E087C
:1001F000B000831249200B298316AF011030B000E4
:10020000831249200B2901308316AF002A08B00061
:10021000831249200B2900348316A0016E3083120B
:10022000FF007F086E3C031D662A06108316061029
:100230008312861483168610831206158316061100
:10024000831286158316861106168312061A35291F
:10025000831606168312061E28293130FF008316E6
:10026000AA008312CB20662A66298316861683127B
:10027000861A4729831686168312861E3A29343039
:10028000FF008316AA008312CB20662A66298316F4
:1002900006178312061B5929831606178312061F99
:1002A0004C293730FF008316AA008312CB20662A20
:1002B0006629831686178312861B6629831686177E
:1002C0008312861F5E296330FF00662A0614831698
:1002D0000610831286108316861083120615831665
:1002E0000611831286158316861106168312061AC6
:1002F0008629831606168312061E79293230FF00DE
:100300008316AA008312CB20662ABB298316861681
:100310008312861A9829831686168312861E8B29C5
:100320003530FF008316AA008312CB20662ABB2932
:10033000831606178312061BAA2983160617831233
:10034000061F9D293830FF008316AA008312CB2098
:10035000662ABB29831686178312861BBB29831640
:1003600086178312861FAF293030FF008316AA003C
:100370008312CB20662A0614831606108312861475
:1003800083168610831206118316061183128615B2
:100390008316861106168312061ADB2983160616A3
:1003A0008312061ECE293330FF008316AA00831263
:1003B000CB20662A102A831686168312861AED2908
:1003C000831686168312861EE0293630FF008316B8
:1003D000AA008312CB20662A102A831606178312DE
:1003E000061BFF29831606178312061FF2293930D0
:1003F000FF008316AA008312CB20662A102A8316D8
:1004000086178312861B102A831686178312861F6F
:10041000042A3D30FF008316AA008312CB20662AEF
:100420000614831606108312861483168610831210
:100430000615831606118312861183168611061679
:100440008312061A302A831606168312061E232AE2
:100450002B30FF008316AA008312CB20662A652A60
:10046000831686168312861A422A831686168312EC
:10047000861E352A2D30FF008316AA008312CB205A
:10048000662A652A831606178312061B542A8316CA
:1004900006178312061F472A2F30FF008316AA0073
:1004A0008312CB20662A652A831686178312861B41
:1004B000652A831686178312861F592A2A30FF0061
:1004C0008316AA008312CB20662A11297F082B3CB1
:1004D00003197E2A7F082D3C03197E2A7F082A3CB7
:1004E00003197E2A7F082F3C03197E2A7F083D3C92
:1004F00003197E2A7F08633C031D882A2A3083164D
:1005000020078400800183127F08A100952A922A87
:100510002A3083162007840083127F088000831608
:10052000A00A831283160E29831200348316A601B3
:10053000A4010A30A500A301A201A101A001831218
:10054000FF08031DA82AA001A101A201A3014D2CAF
:1005500083162608A60A83127F07840000088316E4
:10056000A70027082D3C031DC02A0130A40026083F
:10057000A60A83127F07840000088316A700CC2AEE
:1005800027082B3C031DCC2A2608A60A83127F07C6
:10059000840000088316A70027082F3C03182D2C81
:1005A0002708393C031C2D2C2708303C031DF52A55
:1005B00083127F088316260784000008783C0319FD
:1005C000EA2A83127F088316260784000008583C15
:1005D000031DF52A1030A500A60A2608A60A8312D4
:1005E0007F07840000088316A70025080A3C031D26
:1005F000692B27082F3C0318682B2708393C031C5C
:10060000682B0310200DA900210DAA00220DAB00BC
:10061000230DAC00200D8312A0008316210D831240
:10062000A1008316220D8312A2008316230D8312CC
:10063000A300A00DA10DA20DA30DA00DA10DA20D53
:10064000A30DF830A005831629088312A00783168E
:100650002A0803182A0F2D2B302B8312A10783168B
:100660002B0803182B0F352B382B8312A207831668
:100670002C0803182C0F3D2B402B8312A307831645
:10068000831223088316A300831222088316A20074
:10069000831221088316A100831220088316A0006C
:1006A00030302702A007003003180130A1070030C6
:1006B00003180130A207003003180130A3072608F1
:1006C000A60A83127F07840000088316A700F92A70
:1006D0002D2C2508103C031D2D2C2708603C0318E9
:1006E000782B27087A3C031C782B2708DF39792BD5
:1006F0002708A70027082F3C0318822B2708393C1E
:1007000003188A2B2708403C03182D2C2708463C49
:10071000031C2D2C27082F3C0318D52B2708393C08
:10072000031CD52B200DA900210DAA00220DAB0022
:10073000230DAC00A90DAA0DAB0DAC0DA90DAA0D92
:10074000AB0DAC0DA90DAA0DAB0DAC0DF030A9058C
:100750003030270229078312A00083162A0883124B
:10076000A100003003180130A10783162B08831263
:10077000A200003003180130A20783162C08831250
:10078000A300003003180130A30723088316A30039
:10079000831222088316A200831221088316A10067
:1007A000831220088316A000182C200DA900210D0B
:1007B000AA00220DAB00230DAC00A90DAA0DAB0DB4
:1007C000AC0DA90DAA0DAB0DAC0DA90DAA0DAB0D6D
:1007D000AC0DF030A905413027020A3E29078312EB
:1007E000A00083162A088312A100003003180130EC
:1007F000A10783162B088312A200003003180130D2
:10080000A20783162C088312A300003003180130BE
:10081000A30723088316A300831222088316A200CD
:10082000831221088316A100831220088316A000DA
:100830002608A60A83127F07840000088316A700F3
:10084000603C03182A2C27087A3C031C2A2C270812
:10085000DF392B2C2708A7007A2B25080A3C031D1B
:100860003E2C240B3E2CA009A109A209A309A00A31
:100870000319A10A0319A20A0319A30A2008831263
:10088000A000831621088312A10083162208831278
:10089000A200831623088312A3000034A001A10143
:1008A000A201A3018316B201B301B401B50131085D
:1008B00030042F042E0403198F2C2030B6000310AF
:1008C000AA0DAB0DAC0DAD0DB20DB30DB40DB50D44
:1008D00031083502031D762C30083402031D762CB6
:1008E0002F083302031D762C2E083202031C872C9E
:1008F0002E08B2022F08031C2F0FB3023008031C6E
:10090000300FB4023108031C310FB50203148312F7
:10091000A00DA10DA20DA30D8316B60B5F2CB23056
:1009200084008312003404088316A400A31FA52C9E
:10093000A403A416A009A109A209A309A00A0319E6
:10094000A10A0319A20A0319A30A3B30A9009A308D
:10095000A800CA30A700A6010A30A5002308AD00F0
:100960002208AC002108AB002008AA002908B10029
:100970002808B0002708AF002608AE0083124E24D6
:1009800000088316A000840A0008A100840A000859
:10099000A200840A0008A300FD3084078312A00887
:1009A000031DE92C83162508013A031DD92C831257
:1009B000E92C24080319EC2C0F3925020319E22C29
:1009C0000318182DA41B182D241BEC2C2030102DDF
:1009D000831220308316A405A41EFD2CA4128312BA
:1009E00020088316A4002D30AA008312CB20831682
:1009F00024088312A0008316A4013030A41E102DF9
:100A0000A412831220088316A4002D30AA0083129A
:100A1000CB20831624088312A0008316A401303053
:100A20008312A00720088316AA008312CB20831606
:100A30002908AD002808AC002708AB002608AA004A
:100A4000B101B001AF010A30AE0083124E24230879
:100A50008316A900831222088316A8008312210896
:100A60008316A700831220088316A600A50BAE2CC0
:100A7000831200348316A301A1010A30A200A00151
:100A80008312FF08031D472D0030A1005E2E831640
:100A90002308A30A83127F07840000088316A4009A
:100AA00024082D3C031D5F2D0130A1002308A30A5B
:100AB00083127F07840000088316A4006B2D24088E
:100AC0002B3C031D6B2D2308A30A83127F07840090
:100AD00000088316A40024082F3C0318532E240872
:100AE000393C031C532E2408303C031D942D8312E3
:100AF0007F088316230784000008783C0319892D9A
:100B000083127F088316230784000008583C031DC6
:100B1000942D1030A200A30A2308A30A83127F0792
:100B2000840000088316A40022080A3C031D022E3C
:100B300024082F3C0318012E2408393C031C012EE5
:100B40000A30A5002008A6008312A001A101831687
:100B500025080310261CAF2D8312A00783168312CD
:100B6000A00CA10C8316A61CB82D8312A007831617
:100B70008312A00CA10C8316261DC12D8312A00781
:100B800083168312A00CA10C8316A61DCA2D8312F6
:100B9000A00783168312A00CA10C8316261ED32D4A
:100BA0008312A00783168312A00CA10C8316A61E25
:100BB000DC2D8312A00783168312A00CA10C8316D0
:100BC000261FE52D8312A00783168312A00CA10C0B
:100BD0008316A61FEE2D8312A00783168312A00C86
:100BE000A10C21088316A500303024022507A0009F
:100BF0002308A30A83127F07840000088316A40039
:100C0000982D532E2208103C031D532E2408603CBF
:100C10000318112E24087A3C031C112E2408DF39F6
:100C2000122E2408A40024082F3C03181B2E24088D
:100C3000393C0318232E2408403C0318532E240863
:100C4000463C031C532E24082F3C0318342E240842
:100C5000393C031C342E200EA500F030A5053030A1
:100C600024022507A0003D2E200EA500F030A5058A
:100C7000413024020A3E2507A0002308A30A83125C
:100C80007F07840000088316A4002408603C031832
:100C9000502E24087A3C031C502E2408DF39512E94
:100CA0002408A400132E210B5B2E22080A3C031DEE
:100CB0005B2EA009A00A20088312A1000034203076
:100CC0008316AC00A801A901AA01AB012308831275
:100CD000A300831622088312A20083162108831220
:100CE000A100831620088312A0000310201C882E68
:100CF00083162408A80725080318250FA907260826
:100D00000318260FAA0727080318270FAB0783121B
:100D10008316AB0CAA0CA90CA80C8312A30CA20C72
:100D2000A10CA00C8316AC0B962E982E8312752E58
:040D300083120034F6
:1010000084011F30830583161F149F141F1583123C
:10101000A501FA01CA30FB009A30FC003B30FD000C
:101020008A1197208A1583161F149F141F15831287
:101030001F1094128316871207168711013083122E
:1010400094000030831694000108C73908388100E5
:10105000831290010030A1009200003083169200AC
:101060008A11831297208A15FF017F088A110C20AC
:101070008A15003803194428FF0A8316AA008A112A
:101080008312CB208A153528FF017F088A11122090
:101090008A15003803195428FF0A8316AA008A11FA
:1010A0008312CB208A1545280430FF00FA308316BE
:1010B000AB008A11831227208A15FF0B5628FF01E7
:1010C0007F088A110C208A15003803196F28FF0A3F
:1010D0008316AA008A118312CB208A1560288A11F0
:1010E0000C218A152108FE007E082B3A0319852859
:1010F000063A03190929073A03199229053A0319EF
:101100004E2A4C3A03190A2B1C2B2A30FF008A1155
:1011100096228A152308F1002208F0002108EF002A
:101120002008EE008A110C218A152108FE002A30C1
:10113000FF008A1196228A152308F5002208F40080
:101140002108F3002008F20072086E07E6006F081D
:10115000E70073080318730FE7077008E8007408C6
:101160000318740FE8077108E90075080318750F74
:10117000E9077E083D3C031DDF28413084006908F3
:101180008316A300831268088316A20083126708DF
:101190008316A100831266088316A0008A118312A9
:1011A00093248A150430FF00FA308316AB008A11AD
:1011B000831227208A15FF0BD42808290729F1015B
:1011C000F001EF01EE01F501F401F301F2018A11E2
:1011D0000C218A152108FE002A30FF008A11962270
:1011E0008A152308F1002208F0002108EF002008EA
:1011F000EE006E08E6076F0803186F0FE707700828
:101200000318700FE80771080318710FE907B92870
:101210006F282A30FF008A1196228A152308F100D0
:101220002208F0002108EF002008EE008A110C21AE
:101230008A152108FE002A30FF008A113A258A15F6
:101240002108A000A101A201A3012308F5002208A2
:10125000F4002108F3002008F20072086E02E60094
:101260006F08E7007308031C730FE7027008E800BB
:101270007408031C740FE8027108E9007508031C68
:10128000750FE9027E083D3C031D6829413084004A
:1012900069088316A300831268088316A2008312CC
:1012A00067088316A100831266088316A0008A11BE
:1012B000831293248A150830FF00FA308316AB009E
:1012C0008A11831227208A15FF0B5D299229902904
:1012D000F101F001EF01EE01F501F401F301F2017A
:1012E0008A110C218A152108FE002A30FF008A117C
:1012F00096228A152308F1002208F0002108EF0049
:101300002008EE006E08E6026F08031C6F0FE7026C
:101310007008031C700FE8027108031C710FE902CA
:101320006F2842292A30FF008A1196228A15230845
:10133000F1002208F0002108EF002008EE008A11D9
:101340000C218A152108FE002A30FF008A113A2557
:101350008A152108A000A101A201A3012308F5001C
:101360002208F4002108F3002008F2007108831617
:10137000A300831270088316A20083126F088316DD
:10138000A10083126E088316A000831275088316CD
:10139000A700831274088316A600831273088316AD
:1013A000A500831272088316A4008A1183125F2697
:1013B0008A152308E9002208E8002108E700200830
:1013C000E6007E083D3C031D072A41308400690881
:1013D0008316A300831268088316A200831267088D
:1013E0008316A100831266088316A0008A11831257
:1013F00093248A150830FF00FA308316AB008A1157
:10140000831227208A15FF0BFC294E2A4C2AF10152
:10141000F001EF01EE01F501F401F301F2018A118F
:101420000C218A152108FE002A30FF008A1196221D
:101430008A152308F1002208F0002108EF00200897
:10144000EE0069088316A300831268088316A200C1
:10145000831267088316A100831266088316A00012
:10146000831271088316A700831270088316A600E2
:1014700083126F088316A50083126E088316A400DA
:101480008A1183125F268A152308E9002208E800E2
:101490002108E7002008E6006F28E1292A30FF0034
:1014A0008A1196228A152308F1002208F0002108EB
:1014B000EF002008EE008A110C218A152108FE0099
:1014C0002A30FF008A113A258A152108A000A101BF
:1014D000A201A3012308F5002208F4002108F3006B
:1014E0002008F20071088316AD008312700883167D
:1014F000AC0083126F088316AB0083126E0883164C
:10150000AA00831275088316B1008312740883162B
:10151000B000831273088316AF008312720883161B
:10152000AE008A1183124E248A152308E90022088E
:10153000E8002108E7002008E6007E083D3C031D86
:10154000C32A4130840069088316A3008312680807
:101550008316A200831267088316A100831266080F
:101560008316A0008A11831293248A150830FF0085
:10157000FA308316AB008A11831227208A15FF0BDD
:10158000B82A0A2B082BF101F001EF01EE01F50159
:10159000F401F301F2018A110C218A152108FE00E1
:1015A0002A30FF008A1196228A152308F1002208AA
:1015B000F0002108EF002008EE0069088316AD0056
:1015C000831268088316AC00831267088316AB0089
:1015D000831266088316AA00831271088316B1006D
:1015E000831270088316B00083126F088316AF0051
:1015F00083126E088316AE008A1183124E248A1558
:101600002308E9002208E8002108E7002008E60096
:101610006F289D2AFF017F088A110C208A15003847
:1016200003191A2BFF0A8316AA008A118312CB20F2
:0C1630008A150B2B1C2B6F28342863003C
:02400E00B93FB8
:00000001FF
;PIC16F73
