:1000000000308A00CF2800000A108A100A118207E7
:1000100028340C34013406340A108A100A1182077D
:10002000683465346C346C346F34003428308400A8
:100030000008031929280130A100A001A00B1E28E7
:10004000A10B1D284A30A000A00B24282728800BD4
:100050001B2800342F0EF039A0000F3007052004B4
:100060008700000007153428071100340710F0300E
:100070008316870083128714000007150000070805
:10008000070E0F39AF000711000007150000070821
:10009000070E0F39AE000711003083168700831258
:1000A0002F0EA000F030A00520082E04A10021088A
:1000B000AE00AE1B37282C1C07102C1807140000AC
:1000C0008710000007112D0EAE000F30AE052E0870
:1000D000AF002A202D080F39AE00AF002A200034CF
:1000E00000308316870083120710871007110F3026
:1000F000A80016200130A6002608033C031C88280F
:100100000330AF002A200530A8001620A60A7C285C
:100110000230AF002A20A6012608033C031C9928C0
:1001200026080420A700AC012708AD003620A60A47
:100130008C28003427080C3A0319A528063A03191D
:10014000AD28023A0319C328C828AC010130AD001C
:1001500036200230A8001620CE280130A800023038
:10016000A900290BB428B7284030AA00B828AA0152
:1001700001302802AA072A088038AB00AC012B08FE
:10018000AD003620CE28AC011030AD003620CE2890
:100190000130AC002708AD003620CE2800348401A1
:1001A0001F30830583161F149F141F1583127020A0
:1001B000A60126080C2000380319E228A60AA70089
:1001C0009A20D92883161F149F141F1583121F10FD
:1001D0009412831687120716871101308312940038
:1001E0000030831694000108C73908388100831253
:1001F00090010030A1009200003083169200F03090
:1002000086000030870083127020061083160610C7
:100210008312861483168610831206158316061120
:10022000831286158316861106168312061A212953
:10023000831606168312061E18293030A7009A204E
:100240004A29831686168312861A2F298316861644
:100250008312861E26293430A7009A204A29831645
:1002600006178312061B3D29831606178312061FE5
:1002700034293830A7009A204A298316861783121A
:10028000861B4A29831686178312861F42296330EC
:10029000A7009A2006148316061083128610831670
:1002A000861083120615831606118312861583168F
:1002B000861106168312061A6629831606168312FD
:1002C000061E5D293130A7009A208F2983168616D5
:1002D0008312861A7429831686168312861E6B294A
:1002E0003530A7009A208F29831606178312061B24
:1002F0008229831606178312061F79293930A70031
:100300009A208F29831686178312861B8F298316BE
:1003100086178312861F87296430A7009A20061447
:100320008316061083128614831686108312061114
:1003300083160611831286158316861106168312FC
:10034000061AAB29831606168312061EA22932301E
:10035000A7009A20D429831686168312861AB929F3
:10036000831686168312861EB0293630A7009A207F
:10037000D429831606178312061BC729831606176E
:100380008312061FBE296130A7009A20D429831644
:1003900086178312861BD429831686178312861F1D
:1003A000CC296530A7009A20061483160610831204
:1003B000861483168610831206158316061183127F
:1003C00086118316861106168312061AF0298316E3
:1003D00006168312061EE7293330A7009A20192A31
:1003E000831686168312861AFE29831686168312B2
:1003F000861EF5293730A7009A20192A831606177A
:100400008312061B0C2A831606178312061F032A63
:100410006230A7009A20192A831686178312861B3A
:10042000192A831686178312861F112A6630A700A1
:060430009A20052963007B
:02400E00B93FB8
:00000001FF
;PIC16F73
