:1000000000308A00D12800000A108A100A118207E5
:1000100024340C34013406340A108A100A11820781
:10002000703472346134763469340034283084009A
:100030000008031929280130A100A001A00B1E28E7
:10004000A10B1D284A30A000A00B24282728800BD4
:100050001B2800342F0EF039A0000F3007052004B4
:100060008700000007153428071100340710F0300E
:100070008316870083128714000007150000070805
:10008000070E0F39AF000711000007150000070821
:10009000070E0F39AE000711003083168700831258
:1000A0002F0EA000F030A00520082E04A10021088A
:1000B000AE00AE1B37282C1C07102C1807140000AC
:1000C0008710000007112D0EAE000F30AE052E0870
:1000D000AF002A202D080F39AE00AF002A200034CF
:1000E00000308316870083120710871007110F3026
:1000F000A80016200130A6002608033C031C88280F
:100100000330AF002A200530A8001620A60A7C285C
:100110000230AF002A20A6012608033C031C9928C0
:1001200026080420A700AC012708AD003620A60A47
:100130008C288A11DA2827080C3A0319A628063ACF
:100140000319AE28023A0319C428C928AC010130AA
:10015000AD0036200230A8001620CF280130A800BC
:100160000230A900290BB528B8284030AA00B928C8
:10017000AA0101302802AA072A088038AB00AC0186
:100180002B08AD003620CF28AC011030AD00362052
:10019000CF280130AC002708AD003620CF288A11C7
:1001A000012984011F30830583161F149F141F1516
:1001B0008312702883161F149F141F1583121F109B
:1001C0009412831687120716871101308312940048
:1001D0000030831694000108C73908388100831263
:1001E00090010030A100920000308316920083122B
:1001F000A60126080C20003803190229A60AA70028
:080200009B28F9280229630084
:02400E00B93FB8
:00000001FF
;PIC16F73
