:1000000000308A000428000084011F3083058130FD
:1000100083169900A63098009030831298008316BA
:100020001F149F141F151F109F101F1183121F13E1
:100030009F131F149412831687120716871101301D
:10004000831294000030831694000108C7390838E1
:100050008100831290010030A100920000308316CD
:100060009200860008308312A1001F08C7392104BE
:100070009F001030A000A00B3B2800001F151F1987
:100080003F281E08A60083168601831226088600D4
:0600900083163228630014
:02400E00B83FB9
:00000001FF
;PIC16F73
