:1000000000308A000428000084011F308305193065
:1000100083169900A63098009030831298008316BA
:100020001F149F141F151F109F101F1183121F13E1
:100030009F131F149412831687120716871101301D
:10004000831294000030831694000108C7390838E1
:100050008100831290010030A10005389200FA302F
:10006000831692000711831207110C309700950137
:100070001030A1001F08C73921049F000330A000E1
:10008000A00B40281F151F1943281E08A60026088C
:0600900095003828630012
:02400E00B93FB8
:00000001FF
;PIC16F73
