:1000000000308A00192800002730840000080319F6
:1000100017280130A100A001A00B0C28A10B0B2870
:100020004A30A000A00B12281528800B09288A113D
:10003000512884011F308305193083169900A6309A
:10004000980090308312980083161F149F141F1578
:100050001F109F101F1183121F139F131F14941240
:10006000831687120716871101308312940000301F
:10007000831694000108C739083881008312900163
:100080000030A100920000308316920086000830F4
:100090008312A1001F08C73921049F000A30A7005E
:1000A00004281F151F1952281E08A6002608323CD6
:1000B000031C602883168601013083128600732892
:1000C0002608643C031C6A288316860102308312CA
:1000D000860073282608FA3C031C732883168601C1
:0C00E0000430831286008316472863005A
:02400E00B93FB8
:00000001FF
;PIC16F73
