:1000000000308A00182800002830840000080319F6
:1000100017280130A100A001A00B0C28A10B0B2870
:100020004A30A000A00B12281528800B09280034A4
:1000300084011F308305193083169900A63098007B
:1000400090308312980083161F149F141F15803060
:100050008312A60083161F149F141F1583121F10EE
:1000600094128316871207168711013083129400A9
:100070000030831694000108C739083881008312C4
:1000800090010030A100920000308316920086009B
:1000900086018312260886000310A60C6430A8008F
:1000A0000420A608031D68280130A6000310A60D31
:1000B000831686018312260886000430A700FA30D2
:1000C000A8000420A70B5F282608803C031D5628A3
:0600D000831648286300BE
:02400E00B93FB8
:00000001FF
;PIC16F73
