:1000000000308A00512900000A108A100A11820764
:1000100028340C34013406340A108A100A1182077D
:100020000C340034363084000008031925280130D0
:10003000A100A001A00B1A28A10B19284A30A0008A
:10004000A00B20282328800B172800343D0EF03900
:10005000A0000F3006052004860000000615302899
:10006000061100340610F0306600861400000615F4
:1000700000000608060E0F39BD0006110000061527
:1000800000000608060E0F39BC000611003066009D
:100090003D0EA000F030A00520083C04A10021087E
:1000A000BC00BC1B33283A1C06103A18061400008A
:1000B0008610000006113B0EBC000F30BC053C084A
:1000C000BD0026203B080F39BC00BD0026200034AF
:1000D000003066000610861006110F30B6001220A0
:1000E0000130B2003208033C031C7E280330BD00FF
:1000F00026200530B6001220B20A72280230BD0058
:100100002620B2013208033C031C8F283208042049
:10011000B300BA013308BB003220B20A82288A1128
:1001200074290830A1000000871183168711000090
:100130008312B20D0712031CA02883160716831220
:100140000318A528831607128312831687158312B6
:10015000871DA828A10B93280000871183168711FB
:10016000000007160000000087158312871DB628BF
:10017000A1010000071A2114871183168711831229
:1001800007128316071283120034370BC828CB28B6
:100190004030B800CC28B80101303602B807380822
:1001A0008038B900BA013908BB0032200034350864
:1001B0000C3A0319E228063A0319EA28023A03190D
:1001C000F028F528BA010130BB0032200230B60019
:1001D0001220FB280130B6000230B700C520FB28F2
:1001E000BA011030BB003220FB280130BA003508BC
:1001F000BB003220FB2800340830B4002008B500D2
:1002000083160716000087158312871D0529071A14
:100210000314071E0310A10D00008316871183121B
:100220008711B40B002983160716000083120712EA
:10023000350803191E29831607128312000083163E
:1002400087158312871D22290000871183168711C5
:100250000000831207128316071283128A11EC29F9
:10026000B41B42290F30A000330EA0050A30200233
:1002700003183D293030A0073F293408A007200883
:10028000B500D7200F30B3050A30330203184A29CE
:1002900030304C29B4133408B3073308B500D720E5
:1002A000003484011F308305193083169900A6306D
:1002B000980090308312980083161F149F141F1506
:1002C0001F149F141F1583121F1083160108C739AE
:1002D00008388100831290010030A10092000030A4
:1002E000831692008312682883160716000087156C
:1002F0000000831207128316071200008312871171
:1003000083168711D0308312B2009120B201912060
:100310005030B20091205930B20091205130B200DB
:100320009120B20191201230B20091200330B2002E
:1003300091201430B2009120831607120000871517
:100340008312871DA1290000A52900008316071626
:1003500000008312B20132080C2000380319B429BE
:10036000B20AB500D720AB298316071600008715FF
:1003700000008312071283160712000083128711F0
:1003800083168711D0308312B20091202108B0006B
:10039000B008031DB429B20191208316071600008E
:1003A000871500008312871DD329071283160712B1
:1003B00000008312871183168711D1308312B20097
:1003C0009120B10131080A3C031CF0292630310785
:1003D00084000130A000FC2821088000B10AE22935
:1003E00083160712000087158312871DF529000068
:1003F000F929000083160716000083122808203907
:10040000203C031D242A28089F39B200B30057302E
:10041000B40030213A30B500D7202708B300573058
:10042000B40030213A30B500D7202608B300573049
:10043000B40030212030B500D7207030B500D7206F
:100440006D30B500D720442A28089F39B200B30088
:100450005730B40030213A30B500D7202708B30018
:100460005730B40030213A30B500D7202608B30009
:100470005730B40030212030B500D7206130B500AE
:10048000D7206D30B500D7200130B600B701C520A8
:100490002A08B3005730B40030212F30B500D720E0
:1004A0002B08B3005730B40030212F30B500D720CF
:1004B0002C08B3005730B40030212030B500D720CD
:1004C0000430B200FA30B6001220B20B622AAA2918
:0204D0006300C7
:02400E00B13FC0
:00000001FF
;PIC16CR73
