:1000000000308A000428000084011F308305193065
:1000100083169900A63098009030831298008316BA
:100020001F149F141F151F149F141F1583121F10D8
:1000300094128316871207168711013083129400D9
:100040000030831694000108C739083881008312F4
:1000500090010030A10092000030831692008600CB
:1000600083128C1E31281A08A6008316860183127B
:100070002608860026080C1E3B28990031286300BC
:02400E00B93FB8
:00000001FF
;PIC16F73
