:1000000000308A00502800000A108A100A11820766
:1000100065346E3474346534723420347034613431
:1000200073347334203400340A108A100A118207A2
:1000300063346F347234723465346334743400342E
:100040000A108A100A118207773472346F346E34C2
:10005000673400343A0884000008BC003B08840080
:1000600000083C02031D40283A0884008008031D54
:100070003C280030A1004E283A08BA0ABB0A2A28B8
:100080003A0884000008BC003B08840000083C02D9
:1000900003184C28FF304D280130A1008A11C628D2
:1000A00084011F308305193083169900A63098000B
:1000B00090308312980083161F149F141F1583120B
:1000C000A5016130A6006230A7007330A80063303C
:1000D000A900AA01AB01AC01AD01AE01AF018316CD
:1000E0001F149F141F1583121F109412831687125A
:1000F0000716871101308312940000308316940094
:100100000108C73908388100831290010030A1002E
:1001100092000030831692008312BA013A0804203C
:10012000003803199828BA0A0C1E942899008E28C2
:100130000D300C1E992899000A300C1E9D2899003C
:10014000303084008403840A8C1EA4281A0880009E
:100150000D300002031DA3288001303084000030E0
:1001600000040319B92800080C1EB4289900840A59
:10017000AF280D300C1EBA2899000A300C1EBE287C
:1001800099002630BA003030BB002A28A108031D90
:10019000DE28BA013A08142000380319D428BA0A14
:1001A0000C1ED0289900CA280D300C1ED5289900A5
:1001B0000A300C1ED9289900F228F128BA013A0811
:1001C000202000380319E928BA0A0C1EE5289900F6
:1001D000DF280D300C1EEA2899000A300C1EEE288C
:0601E00099008D28630068
:02400E00B93FB8
:00000001FF
;PIC16F73
